S017000054656D7065726174657220636F64652E7372656339
S11300000C942A000C9447000C9447000C9447006D
S11300100C9447000C9447000C9447000C94470040
S11300200C9447000C9447000C9447000C94470030
S11300300C9447000C9447000C9447000C94470020
S11300400C9447000C9447000C9447000C94470010
S11300500C94470011241FBECFE5D8E0DEBFCDBF0E
S113006010E0A0E6B0E0E4EEF0E102C005900D92ED
S1130070AA3BB107D9F710E0AAEBB0E001C01D928A
S1130080A23CB107E1F70E94BB040C9470080C94E5
S113009000003E9A3F9A3C9A379A329A319A0895D0
S11300A0369A349BFECF349A84B190E045B1342F14
S11300B020E0822B932B089540E00E947500089560
S11300C00E94E401089541E00E947500089541E012
S11300D00E940601089540E00E94060108950E94CE
S11300E0970108950E94E4010895843409F471C0CD
S11300F0853448F4823499F1833408F04DC0813456
S113010009F083C00FC0823651F1833620F4813662
S113011009F07BC007C0833609F43EC0843609F079
S113012074C057C0413069F42AB381E090E0AC0157
S113013002C0440F551F6A95E2F7BA01622B6ABBED
S113014008952AB381E090E0AC0102C0440F551F2A
S11301506A95E2F7BA01609562236ABB089541305B
S113016069F427B381E090E0AC0102C0440F551F4D
S11301706A95E2F7BA01622B67BB089527B381E061
S113018090E0AC0102C0440F551F6A95E2F7BA0132
S11301906095622367BB0895413069F424B381E01C
S11301A090E0AC0102C0440F551F6A95E2F7BA0112
S11301B0622B64BB089524B381E090E0AC0102C0DB
S11301C0440F551F6A95E2F7BA016095622364BB38
S11301D00895413069F421B381E090E0AC0102C09C
S11301E0440F551F6A95E2F7BA01622B61BB08956B
S11301F021B381E090E0AC0102C0440F551F6A9521
S1130200E2F7BA016095622361BB0895843409F46E
S113021071C0853448F4823499F1833408F04DC0B8
S1130220813409F083C00FC0823651F1833620F443
S1130230813609F07BC007C0833609F43EC084369A
S113024009F074C057C0413069F42BB381E090E0E9
S1130250AC0102C0440F551F6A95E2F7BA01622B44
S11302606BBB08952BB381E090E0AC0102C0440F56
S1130270551F6A95E2F7BA01609562236BBB089536
S1130280413069F428B381E090E0AC0102C0440F2E
S1130290551F6A95E2F7BA01622B68BB089528B32B
S11302A081E090E0AC0102C0440F551F6A95E2F76B
S11302B0BA016095622368BB0895413069F425B39F
S11302C081E090E0AC0102C0440F551F6A95E2F74B
S11302D0BA01622B65BB089525B381E090E0AC01BF
S11302E002C0440F551F6A95E2F7BA016095622374
S11302F065BB0895413069F422B381E090E0AC011C
S113030002C0440F551F6A95E2F7BA01622B62BB23
S1130310089522B381E090E0AC0102C0440F551F60
S11303206A95E2F7BA016095622362BB089584344A
S113033009F43DC0853440F48234F9F0833450F537
S1130340813409F040C00CC08236B9F0833618F409
S11303508136C9F505C08336E9F08436A1F527C096
S11303602BB381E090E0AC0102C0440F551F6A95A5
S1130370E2F7BA0162276BBB089528B381E090E0ED
S1130380AC0102C0440F551F6A95E2F7BA01622717
S113039068BB089525B381E090E0AC0102C0440F2E
S11303A0551F6A95E2F7BA01622765BB089522B327
S11303B081E090E0AC0102C0440F551F6A95E2F75A
S11303C0BA01622762BB0895843409F44EC08534AF
S11303D040F4823431F18334B0F5813409F057C0EC
S11303E00EC08236F1F0833620F4813609F04FC016
S11303F006C0833641F1843609F049C036C029B3BA
S113040081E090E0062E02C0880F991F0A94E2F75B
S113041030E08223932302C0959587956A95E2F78D
S1130420089526B381E090E0062E02C0880F991F3C
S11304300A94E2F730E08223932302C095958795CE
S11304406A95E2F7089523B381E090E0062E02C096
S1130450880F991F0A94E2F730E08223932302C0A5
S1130460959587956A95E2F7089520B381E090E029
S1130470062E02C0880F991F0A94E2F730E0822307
S1130480932302C0959587956A95E2F70895089598
S11304908434D9F0853438F4823499F0833498F470
S11304A08134A1F40CC0823661F0833618F48136AD
S11304B069F405C0833639F0843641F406C06ABB5A
S11304C0089567BB089564BB089561BB089584349F
S11304D0D9F0853438F4823499F0833498F4813433
S11304E0A1F40CC0823661F0833618F4813669F4C5
S11304F005C0833639F0843641F406C06BBB0895D9
S113050068BB089565BB089562BB08958434D9F02F
S1130510853438F4823499F0833498F48134A1F426
S11305200CC0823661F0833618F4813669F405C054
S1130530833639F0843641F406C089B3089586B30E
S1130540089583B3089580B30895843409F18534FC
S113055038F48234A9F08334B8F48134E1F40CC063
S1130560823671F0833618F48136A9F405C08336D7
S113057059F0843681F40CC08BB380958BBB0895FD
S113058088B3809588BB089585B3809585BB08950D
S113059082B3809582BB0895843409F471C0853494
S11305A048F4823499F1833408F04DC0813409F061
S11305B083C00FC0823651F1833620F4813609F0AE
S11305C07BC007C0833609F43EC0843609F074C08A
S11305D057C0413069F42BB381E090E0AC0102C014
S11305E0440F551F6A95E2F7BA01622B6BBB08955D
S11305F02BB381E090E0AC0102C0440F551F6A9513
S1130600E2F7BA01609562236BBB0895413069F447
S113061028B381E090E0AC0102C0440F551F6A95F5
S1130620E2F7BA01622B68BB089528B381E090E039
S1130630AC0102C0440F551F6A95E2F7BA016095F8
S1130640622368BB0895413069F425B381E090E0EA
S1130650AC0102C0440F551F6A95E2F7BA01622B40
S113066065BB089525B381E090E0AC0102C0440F5E
S1130670551F6A95E2F7BA016095622365BB089538
S1130680413069F422B381E090E0AC0102C0440F30
S1130690551F6A95E2F7BA01622B62BB089522B333
S11306A081E090E0AC0102C0440F551F6A95E2F767
S11306B0BA016095622362BB08950F931F93CF9391
S11306C0C82F062F462F417060E00E94060110E0FB
S11306D0A80142705070559547958C2F61E00E9497
S11306E00601A80144705070559547955595479556
S11306F08C2F62E00E94060108701070A8015595C5
S1130700479555954795559547958C2F63E00E94DD
S11307100601CF911F910F9108950F931F93CF93CB
S1130720DF93C82FD62F062F10E0A8014071507018
S1130730559547955595479555954795559547959D
S113074064E00E940601A8014072507055954795D7
S1130750559547955595479555954795559547957D
S11307608C2F65E00E94060100741070A801042E0D
S1130770452F000C441F550B000C441F551F8C2F94
S113078066E00E9406014D2F441F4427441F8C2F0E
S113079067E00E940601DF91CF911F910F910895A8
S11307A082E460E041E00E9406018FE99FE0019746
S11307B0F1F700C0000082E460E040E00E9406011E
S11307C08FE99FE00197F1F700C000000895682FBA
S11307D084E40E94670282E462E041E00E94060130
S11307E00E94D0030895682F84E40E94670282E483
S11307F062E040E00E9406010E94D0038FEC97E083
S11308000197F1F700C0000008958FE799EAA3E08B
S113081081509040A040E1F700C0000084E460E013
S113082041E00E94750084E461E041E00E947500AB
S113083084E462E041E00E94750084E463E041E006
S11308400E94750084E464E041E00E94750084E441
S113085065E041E00E94750084E466E041E00E94A6
S1130860750084E467E041E00E94750082E460E082
S113087041E00E94750082E462E041E00E9475005C
S113088082E461E041E00E94750082E461E040E0BE
S11308900E94060188E30E94F303AFECB7E01197CE
S11308A0F1F700C000008EE00E94F3038FEC97E0A4
S11308B00197F1F700C0000081E00E94F303AFEC60
S11308C0B7E01197F1F700C0000086E00E94F3033F
S11308D08FEC97E00197F1F700C00000089581E0E4
S11308E00E94F3038FE19EE40197F1F700C000003A
S11308F00895CF93DF93EC018881882331F021960A
S11309000E94E70389918823D9F7DF91CF91089555
S1130910282F2150223070F4613170F4662371F075
S1130920813019F4962F91580AC0823041F4962FE1
S1130930915405C090E803C090E801C090E8892F65
S11309400E94F3038FEC97E00197F1F700C00000D9
S1130950089541E00E947500089541E00E94060157
S1130960089540E00E94060108950E9497010895A9
S11309700E94E40108950E9405040E94490081E652
S113098063E00E94A90482E666E00E94A90482E66C
S113099067E00E94630080E690E00E94790481E6AB
S11309A062E00E945C0081E664E00E945C0082E6F2
S11309B065E00E945C008FEF84BBAA9ACAE0D0E095
S11309C00F2EF4EA2F2EF0E03F2EF02D0F2EF5E936
S11309D04F2EF0E05F2EF02D0F2EFAE86F2EF0E090
S11309E07F2EF02D0F2EF0E88F2EF0E09F2EF02DAD
S11309F00F2EF6E7AF2EF0E0BF2EF02D0F2EFDE602
S1130A00CF2EF0E0DF2EF02D0F2EF1EBEF2EF0E0E5
S1130A10FF2EF02D08EE13E08CE00E94F3030E94F9
S1130A205000BC0180E090E00E946B0720E030E0C1
S1130A3040E250E40E94D1070E943F07DC01CB0151
S1130A409093BE008093BD000E945000BC0180E0E2
S1130A5090E00E946B0720E030E040E85EE30E94F3
S1130A60D1070E943F07DC01CB019093C000809323
S1130A70BF008091BD009091BE0023E0883E9207A4
S1130A8008F4A8C1885E9340BE010E945C089B01E3
S1130A907093C0006093BF00CB010197893091052A
S1130AA008F041C081E06DE00E9488048091BF009D
S1130AB09091C000BE010E945C08862F805D0E9458
S1130AC0E7038091BF009091C000BE010E945C08C2
S1130AD0805D0E94E7038FED0E94E70383E40E9498
S1130AE0E70382E066E00E94880481E662E00E94F7
S1130AF060008093BC00813029F481E663E00E94A9
S1130B00B10404C081E663E00E94AD04C6010E9402
S1130B107904A89882E666E00E94B10482E667E060
S1130B200E946B0079CFCB010A978F30910508F0B2
S1130B3041C081E06DE00E9488048091BF009091E3
S1130B40C000BE010E945C08862F805D0E94E703FE
S1130B508091BF009091C000BE010E945C08805D3E
S1130B600E94E7038FED0E94E70383E40E94E703FA
S1130B7082E066E00E948804C5010E94790481E64F
S1130B8062E00E9460008093BC00813029F481E619
S1130B9063E00E94B10404C081E663E00E94AD04F6
S1130BA0A89882E666E00E94B10482E667E00E94AB
S1130BB06B0032CFCB0149978A309105A0F581E0D3
S1130BC06DE00E9488048091BF009091C000BE0136
S1130BD00E945C08862F805D0E94E7038091BF001D
S1130BE09091C000BE010E945C08805D0E94E703F2
S1130BF08FED0E94E70383E40E94E70382E066E04E
S1130C000E948804C4010E94790481E663E00E9482
S1130C10B104A89882E666E00E94B10482E667E027
S1130C200E946B00F9CECB0183978A309105F0F5D1
S1130C3081E06DE00E9488048091BF009091C00023
S1130C40BE010E945C08862F805D0E94E7038091AC
S1130C50BF009091C000BE010E945C08805D0E94AC
S1130C60E7038FED0E94E70383E40E94E70382E039
S1130C7066E00E948804C3010E94790481E664E06E
S1130C800E9460008093BB00813011F4A89801C0D9
S1130C90A89A81E663E00E94B10482E666E00E94BD
S1130CA0B10482E667E00E946B00B6CE6D527040DC
S1130CB06B30710508F045C081E06DE00E94880446
S1130CC08091BF009091C000BE010E945C08862FF5
S1130CD0805D0E94E7038091BF009091C000BE0137
S1130CE00E945C08805D0E94E7038FED0E94E70389
S1130CF083E40E94E7038CE00E94F30382E065E052
S1130D000E948804C2010E94790481E663E00E9483
S1130D10B10481E664E00E9460008093BB008130EE
S1130D2011F4A89801C0A89A81E663E00E94B10476
S1130D3082E666E00E94B10482E667E00E946B00EE
S1130D406BCE2833310508F467CE81E06DE00E9454
S1130D5088048091BF009091C000BE010E945C088D
S1130D60862F805D0E94E7038091BF009091C000B0
S1130D70BE010E945C08805D0E94E7038FED0E9423
S1130D80E70383E40E94E70382E066E00E948804AC
S1130D90C1010E94790481E663E00E94B104A8982D
S1130DA082E665E00E9460008093BA00813049F4D5
S1130DB082E666E00E94B10482E667E00E946B006E
S1130DC02BCE82E666E00E94B50482E667E00E94CC
S1130DD0670022CE82E067E00E948804C7010E9477
S1130DE079048091BD009091BE009801281B390BB5
S1130DF0C901BE010E945C086F5F7F4F7093C00001
S1130E006093BF0081E06DE00E9488048DE20E943F
S1130E10E7038091BF009091C000BE010E945C086E
S1130E20862F805D0E94E7038091BF009091C000EF
S1130E30BE010E945C08805D0E94E7038FED0E9462
S1130E40E70383E40E94E703A89882E666E00E9431
S1130E50B10482E667E00E946B0081E662E00E94D2
S1130E6060008093BC00813029F481E663E00E9435
S1130E70B104D2CD81E663E00E94AD04CDCD70D043
S1130E8088F09F5790F0B92F9927B751A0F0D1F06F
S1130E90660F771F881F991F1AF0BA95C9F712C0F9
S1130EA0B13081F077D0B1E0089574C0672F782F06
S1130EB08827B85F39F0B93FCCF386957795679565
S1130EC0B395D9F73EF490958095709561957F4FD1
S1130ED08F4F9F4F0895E89409C097FB3EF4909577
S1130EE08095709561957F4F8F4F9F4F9923A9F0FF
S1130EF0F92F96E9BB279395F6958795779567958E
S1130F00B795F111F8CFFAF4BB0F11F460FF1BC0D1
S1130F106F5F7F4F8F4F9F4F16C0882311F096E964
S1130F2011C0772321F09EE8872F762F05C0662312
S1130F3071F096E8862F70E060E02AF09A95660FCB
S1130F40771F881FDAF7880F9695879597F9089584
S1130F5057FD9058440F551F59F05F3F71F0479566
S1130F60880F97FB991F61F09F3F79F0879508954B
S1130F70121613061406551FF2CF4695F1DF08C06A
S1130F80161617061806991FF1CF86957105610587
S1130F9008940895E894BB2766277727CB0197F92F
S1130FA008950BD078C069D028F06ED018F095233E
S1130FB009F05AC05FC01124EECFCADFA0F3959F99
S1130FC0D1F3950F50E0551F629FF001729FBB272C
S1130FD0F00DB11D639FAA27F00DB11DAA1F649FD8
S1130FE06627B00DA11D661F829F2227B00DA11D8B
S1130FF0621F739FB00DA11D621F839FA00D611D11
S1131000221F749F3327A00D611D231F849F600D31
S1131010211D822F762F6A2F11249F5750408AF06A
S1131020E1F088234AF0EE0FFF1FBB1F661F771FF6
S1131030881F91505040A9F79E3F510570F014C08D
S1131040AACF5F3FECF3983EDCF3869577956795DE
S1131050B795F795E7959F5FC1F7FE2B880F911D14
S11310609695879597F9089597F99F6780E870E0BA
S113107060E008959FEF80EC089500240A9416160A
S1131080170618060906089500240A941216130672
S1131090140605060895092E0394000C11F4882300
S11310A052F0BB0F40F4BF2B11F460FF04C06F5F1C
S11310B07F4F8F4F9F4F0895AA1BBB1B51E107C061
S11310C0AA1FBB1FA617B70710F0A61BB70B881FD4
S11310D0991F5A95A9F780959095BC01CD01089563
S10710E0F894FFCFAE
S11310E454656D70657261747572653D0020436F5B
S11310F46C64202020002020436F6C642020200096
S1131104207761726D2020202000202020486F74F5
S11311142020202000205665727920486F742020F6
S113112420202000202066697265202020202020B1
S10D11340020536E6F772020200086
S9030000FC
